:020000040800F2
:10000000D86700205D020008F9410008FD2B0008B8
:10001000C93B0008B10800088D5B00080000000023
:100020000000000000000000000000009D0100082A
:100030009909000800000000F901000815500008A7
:1000400077020008770200087702000877020008AC
:10005000770200087702000877020008770200089C
:10006000770200087702000877020008C508000838
:1000700077020008D108000877020008770200081C
:10008000DD08000877020008770200087702000800
:10009000770200087702000877020008770200085C
:1000A000770200087702000877020008770200084C
:1000B000770200087702000877020008770200083C
:1000C000770200087702000877020008770200082C
:1000D00077020008795A0008ED5A0008815B000891
:1000E000770200087702000877020008E150000854
:1000F00077020008770200087702000877020008FC
:1001000077020008770200087702000877020008EB
:1001100071550008F5550008D55000087702000811
:100120007702000877020008E90800087702000853
:1001300077020008770200087702000877020008BB
:1001400077020008770200087702000877020008AB
:10015000770200087702000877020008770200089B
:10016000770200087702000877020008770200088B
:1001700077020008770200087702000800000000FC
:100180007702000877020008DFF80CD000F022FBAD
:1001900000480047015D0008D86700202C4B196813
:1001A0000868B0E8F04F80F30988BFF36F8F4FF015
:1001B000000080F3118870470000000008480068C4
:1001C000006880F308884FF0000080F3148862B65E
:1001D00061B6BFF34F8FBFF36F8F00DF00BF00BF6B
:1001E00008ED00E0DFF80C00016841F470010160E7
:1001F000704700BF88ED00E0EFF30980BFF36F8F19
:10020000134B1A681EF0100F08BF20ED108A20E96A
:10021000F04F106009B44FF0500080F31188BFF325
:100220004F8FBFF36F8F06F0D3FC4FF0000080F3C9
:10023000118809BC19680868B0E8F04F1EF0100F6B
:1002400008BFB0EC108A80F30988BFF36F8F704746
:10025000A0000020EFF305807047000006488047AB
:1002600006480047FEE7FEE7FEE7FEE7FEE7FEE79B
:10027000FEE7FEE7FEE7FEE7C5500008890100083B
:100280002DE9F05F0546002092469B4688460646CB
:10029000814640241BE0284641464746224600F05E
:1002A000D6F953465A46C01A914110D31146184602
:1002B000224600F0BDF92D1A67EB01084F46224691
:1002C0000120002100F0B4F917EB00094E41201E77
:1002D000A4F10104DFDC484631462A464346BDE826
:1002E000F09F40EA01039B0703D009E008C9121FF1
:1002F00008C0042AFAD203E011F8013B00F8013BE0
:10030000521EF9D27047D2B201E000F8012B491E0B
:10031000FBD270470022F6E710B513460A460446A2
:100320001946FFF7F0FF204610BD2DE9FE4F80462D
:1003300081EA0300C00F0C46009021F0004123F039
:100340000045B8EB0200A94105D24046214690463F
:100350001C460B46024623F00040104347D0270DB1
:10036000C7F30A00C3F30A510290401A01904028D3
:100370006BDAC3F3130040F4801B0098924620B15F
:100380000023D2EB030A63EB0B0B01985946C0F133
:100390004002504600F04CF906460D46504659467C
:1003A000019A00F064F910EB08006141002487EA2B
:1003B000115284EAE7731A4340D0009A62B3019A5B
:1003C000012A4FEA075215DC001B61EB02014FF0D6
:1003D000004202EA0752CDE90042001C41F58011BB
:1003E00032462B4600F064F903B0BDE8F08F40467A
:1003F0002146F9E7001B61EB0201001C41F5801367
:1004000000185B412018A2F5001747EB030140EAF2
:10041000D570B6196D4111E06D084FEA360645EA10
:10042000C0754FEA0752001B61EB0201001C41F549
:10043000801149084FEA30000019514132462B46DD
:1004400003B0BDE8F04F00F024B90098012240004D
:100450000023D0EB020263EBE073009821464FEAE1
:10046000E074B8EB000061EB0401E9E783F00043BE
:100470005BE781F0004158E72DE9FE4F81EA030474
:1004800004F0004421F0004100944FF0000B23F0F1
:10049000004350EA01045ED052EA03045BD0C3F388
:1004A0000A54C1F30A552C44A4F2F3340194A0FB7E
:1004B0000254C1F3130141F48011C3F3130343F455
:1004C000801301FB024400FB034E840A970A44EAAE
:1004D000815447EA8357A4FB076802958D0A05FB00
:1004E00007854FEA932C04FB0C542705029D4FEA25
:1004F000065847EA1637B5EB08056EEB070C870E72
:10050000920E47EA811742EA8312A7FB0201B6EB7B
:100510000B0164EB00042B0D43EA0C335E1844EB33
:100520001C50DA465146E7FB0201C5F313044FEABB
:100530000B3343EA14534FEA0432019C43EA0603A7
:10054000A4F10C040294009CCDE900B400F0B0F8D2
:1005500003B0BDE8F08F00200146F9E70EB540F288
:10056000334102910021CDE900110A460B4600F00B
:100570009FF803B000BDC1F30A5210B5C1F31301D7
:1005800040F2FF3341F480119A4201DA002010BD9D
:1005900040F233439A42A2F2334203DC524200F06B
:1005A00056F810BD904010BD00F0004230F0004001
:1005B0000AD0C10D01F56071C0F3160042EA015185
:1005C000C2084007114370470020014670470000F1
:1005D00030B5041E71F1000404DB4FF000444042CA
:1005E00064EB0101141E73F1000405DB1C464FF09F
:1005F0000043524263EB04038B4208BF824230BD8A
:1006000030B5041E71F1000404DB4FF00044404299
:1006100064EB0101141E73F1000405DB1C464FF06E
:100620000043524263EB0403994208BF904230BD3D
:10063000202A04DB203A00FA02F1002070479140A2
:10064000C2F1200320FA03F3194390407047202A97
:1006500004DB203A21FA02F00021704721FA02F36C
:10066000D040C2F120029140084319467047202A29
:1006700006DBCB17203A41FA02F043EAE07306E0CA
:1006800041FA02F3D040C2F12002914008431946DA
:10069000704710B5141E73F1000408DA401C41F1D4
:1006A000000192185B411A4301D120F0010010BDF6
:1006B0002DE9F04D92469B4611B1B1FA81F202E06C
:1006C000B0FA80F220329046FFF7B2FF04460F46A0
:1006D00040EA0A0041EA0B0153465A46084313D048
:1006E000114653EA010019D0C8F140025046FFF705
:1006F000AEFF05460E46504659464246FFF798FF64
:10070000084305D0012004E020463946BDE8F08DBD
:100710000020054346EAE0762C4337430A986305F8
:10072000E40AA0EB08000022FD0A44EA47540A301C
:1007300002D500200146E9E7010510196941DDE90C
:10074000084500196941BDE8F04DA2E72DE9F041E7
:10075000054621F000400C46284309D0C4F30A5056
:1007600040F23341884205DD28462146BDE8F0814C
:100770002846FBE740F2FE31884210DC0CDB4FEAF2
:10078000043040EA155050EA053105D0104804F015
:10079000004101430020E9E700200146E6E7A0F21E
:1007A00033404642C6F1400228462146FFF740FF4B
:1007B00007468846284621463246FFF748FF43460B
:1007C0003A46FFF766FF3246BDE8F041FFF730BF1B
:1007D0000000F03F064C074D06E0E06840F00103E2
:1007E00094E8070098471034AC42F6D3FFF7D0FCEA
:1007F000DC7F0008FC7F000810B52048204900235A
:1008000090F824401F48DFED200A204A91ED000AAD
:10081000462C15D008DCA4F14104052C10D2DFE8E9
:1008200004F01B0F1E0F2200B1EE041A582C1DD02D
:1008300007DC472C04D113779FED150A80ED020ADF
:1008400010BD592C15D05A2CFAD1C0ED000AC0EDBC
:10085000010A0120107710BD80EC020A10BD137749
:100860009FED0C0AEAE7B1EE400AF5E730EE010A27
:1008700001E030EE410A81ED000A10BDA001002028
:100880003C000020F0070020000000003C02002097
:10089000000016C300001643044B4FF4005108B18A
:1008A000012200E00022184600F0EDBB00040240E7
:1008B000FEE704F011FB03F089F9142005F088FA33
:1008C000F7E70000014800F06FB900009C1100201C
:1008D000014800F069B900003C110020014800F017
:1008E00063B900005C120020014800F05DB900000F
:1008F000FC11002001681823CAB2103AB2FBF3F2CF
:10090000054B6FF30901032A9B5CC36500D9091DE0
:100910008165084670470000787F000810B50146E1
:1009200000208B698A6A4FF0C07453B1B3F5005F41
:1009300015D072B1012A0CD0022A0AD0032A09D19B
:1009400004E01AB1012A06D0022A03D1C96AC901FA
:1009500000D5012010BDC96AA142FAD010BD002AFD
:10096000F7D0012AF2D0022AF3D0032AF3D010BD27
:1009700030B50468256825F4802525600468636027
:100980008368402B036803D099600068C26030BD63
:100990009A600068C16030BD704702F0E1FC03F06E
:1009A0007BFE0A2005F014FAF7E7000000B50220EC
:1009B00004F094FA3A4B40421860042004F08EFA96
:1009C0005860032004F08AFA9860052004F086FA43
:1009D000D86093ED000AD3ED061A3549B8EEC00A87
:1009E00060EE210A93ED050A20EE801AF2EE040A69
:1009F00081EE202A93ED041A82EE014A93ED012A3A
:100A0000B8EEC22A22EE212A62EE002A82EEA02A45
:100A100082EE013A93ED022AB8EEC22A22EE212A92
:100A200062EE002A82EEA02AC2EE012A02EE100A2D
:100A30001E48B8EEC22A62EE211A61EE801A81EEDB
:100A4000A00ADFED190AD0ED001AC0EE013A9FEDC1
:100A5000150A20EE041A00EEA11A60EE031A81EDC9
:100A6000001A90ED012A134940EE821A20EE222A44
:100A700020EE230AC1ED001AD0ED022A0E4900EE45
:100A8000A22A81ED002AD0ED032A0C4900EEA20A29
:100A900081ED000A80ED030A80EC031A00BD00001E
:100AA00020020020CDCC4C3ECDCC4C3F2400002079
:100AB0003C02002090070020B0070020D007002053
:100AC00072B6FEE70748C06E41884ABA06490A6016
:100AD000828852BA4A60C1884ABA04490A60007AD8
:100AE00048607047A001002014000020540000203E
:100AF0002DE9F0410446876D00F0CAFA064694F8E5
:100B000035000025022806D08020606584F8345026
:100B10000120BDE8F0812068016821F01601016024
:100B20002068416921F080014161206C08B9A06C06
:100B300020B12068016821F0080101602068016887
:100B400021F0010101600CE000F0A2FA801B0528F1
:100B500007D920206065032084F8350084F83450DC
:100B6000D7E720680068C007EED194F85C103F20FA
:100B70008840B860012084F8350084F834500020A3
:100B8000C7E790F83510022903D080214165012084
:100B90007047052180F835100068016821F00101D7
:100BA00001600020704700002DE9F84304464FF033
:100BB0000009CDF8009063484FF41651A56D006808
:100BC000B0FBF1F72E6894F85C10082000FA01F1F0
:100BD00031420FD021680A6852070BD50A6822F00B
:100BE00004020A6094F85C108840A860606D40F0D0
:100BF0000100606594F85C104FF0010808FA01F0FC
:100C0000304208D021684969090604D5A860606DA2
:100C100040F00200606594F85C1004208840304287
:100C200008D021680968890704D5A860606D40F084
:100C30000400606594F85C1010208840304218D0A1
:100C400021680968090714D5A8602068016849036C
:100C500004D50068000308D5A16C07E00168C90548
:100C600003D4016821F008010160216C09B120461C
:100C7000884794F85C1020208840304231D02168A9
:100C80000968C9062DD5A86094F8350005282068A4
:100C9000016806D0490347D5006800031DD4616C84
:100CA0001CE021F0160101602068416921F08001FB
:100CB0004161206C08B9A06C20B12068016821F066
:100CC0000801016094F85C103F208840A86084F817
:100CD000358084F83490216D1FE0E16B09B1204626
:100CE0008847606D00282BD0606DC00714D00520A8
:100CF00084F835002068016821F001010160009846
:100D0000401C0090B84203D820680068C007F6D1A4
:100D100084F8358084F83490E16C002910D001B05B
:100D20002046BDE8F04308470168C905D5D40168ED
:100D300021F01001016084F8358084F83490CCE70C
:100D4000BDE8F8839C0000202DE9F041044600F046
:100D50009FF906465CB1022084F83500002584F82E
:100D600034502068016821F0010101600DE001208C
:100D7000BDE8F08100F08CF9801B052805D9202002
:100D80006065032084F83500F2E720680068C0073A
:100D9000F0D12268116820480140D4E901031843CA
:100DA000D4E903363343184363691843A3691843EE
:100DB000E3691843236A18430843616A042903D18D
:100DC000D4E90B1319430843106020684069666A30
:100DD00020F0070130460E43012704280CD1A06AF9
:100DE0000643E06A40B12046FFF798FD20B140205D
:100DF000606584F83570BAE7206846612046FFF7E1
:100E000079FD94F85C203F2191408160656584F80C
:100E100035700020ACE700003F8010F02DE9F04174
:100E20000446866D90F83400002501280DD001207D
:100E300084F8340094F835700020012F07D084F82E
:100E4000340002252846BDE8F0810220FBE7022796
:100E500084F8357060652046FFF78AFD94F85C10D1
:100E60003F208840B0602068016841F016010160B1
:100E7000206C20B12068016841F008010160206801
:100E8000016841F001010160DCE700002DE9F84F45
:100E9000DFF8BCA10022012503264FF00F090AF15B
:100EA000040BAAF1040E00BF0B6805FA02F42340FC
:100EB000A34270D10F7907F00307012F01D0022F51
:100EC00016D187684FEA420806FA08FC27EA0C07A1
:100ED000D1F80CC00CFA08FC4CEA070CC0F808C0AA
:100EE0004768A7430C79C4F3001494403C43446022
:100EF0000C79E443A4070AD0C4684FEA420C06FA0E
:100F00000CF7BC438F6807FA0CF72743C7600C79CE
:100F100004F00304022C12D1D40800EB840CDCF89A
:100F200020405707FF0E09FA07F824EA0804D1F811
:100F3000108008FA07F848EA0408CCF82080046812
:100F40004FEA420C06FA0CF7BC430F7907F003078F
:100F500007FA0CF7274307604C6814F4403F70D041
:100F60003C4C276847F480472760246822F0030739
:100F700004F480440094384C07EB040CDCF8084877
:100F800097074FEA177809FA08F7BC43334FB8427E
:100F900002D1002724E054E0314FB84201D10127AB
:100FA0001EE0304FB84201D1022719E02E4FB8425F
:100FB00001D1032714E02D4FB84201D104270FE0DF
:100FC0002B4FB84201D105270AE02A4FB84201D180
:100FD000062705E0284FB84201D1072700E008277F
:100FE00007FA08F72743CCF80878DAF800405746A4
:100FF000D1F804C09C435FEACC2C00D51C433C6074
:10100000DBF800405F46D1F804C09C435FEA8C2CBB
:1010100000D51C433C60DEF800407746D1F804C0A0
:101020009C435FEA8C3C00D51C433C60084F083F62
:101030003C68D1F804C09C435FEACC3C00D51C431B
:101040003C60521C102AFFF42FAFBDE8F88F00005F
:10105000083C01404438024000300140000002409A
:101060000004024000080240000C02400010024050
:101070000014024000180240001C024000690840B1
:1010800000D0012070470AB1816170470904FBE775
:1010900001488068704700009000002070B504008F
:1010A00025D094F83D00002520B984F83C50204616
:1010B00000F04EF9242084F83D002068016821F0FA
:1010C000010101602068016841F40041016020686D
:1010D000016821F40041016000F032FB4D4A616873
:1010E000914201D84C4900E04C49884201D201208C
:1010F00070BD4B492368B0FBF1F15E6826F03F06F6
:101100000E435E606368934206D94FF49673594369
:101110004FF47A73B1FBF3F12368491C1E6A26F081
:101120003F06314319626168914210D84900401E60
:10113000B0FBF1F2521CC2F30B02042A01D20420CC
:1011400022E0B0FBF1F0401CC0F30B001CE0A268F1
:10115000F2B301EBC10303EB0116431EB3FBF6F33D
:101160005B1C43F480431B0549D092B301EBC102E1
:1011700002EB0111401EB0FBF1F0401CC0F30B006C
:1011800040F4804040F400402168CA694CF6FF7387
:101190009A431043C861D4E90710014320680268EC
:1011A00022F0C00211430160D4E903010143206829
:1011B000826848F2FF339A4311438160D4E9050104
:1011C00008432168CA6822F0FF021043C86001E0AA
:1011D0000EE016E02068016841F00101016025641D
:1011E000202084F83D00256384F83E50002070BD27
:1011F00001EB4106431EB3FBF6F35B1CB3E7012092
:10120000C2E701EB4101401EB0FBF1F0401CC0F30E
:101210000B00B7E7A086010080841E0000093D0096
:1012200040420F002DE9F84F1F4690468A4604467B
:10123000DDF82890FFF72CFF054694F83D002028A4
:101240007FD11923012240492046009501F068FD15
:10125000002876D194F83C00012872D0012084F84F
:101260003C0020680168C90703D1016841F0010111
:1012700001602068016821F400610160212084F888
:101280003D00102084F83E0000262664C4F8248027
:101290006785608D20852D48E0622B464A46514681
:1012A000204601F0C3FC90B9206841698069009034
:1012B00036E02A464946204601F0D8FD50B1206C60
:1012C000042804D12068016841F400710160012004
:1012D000BDE8F88F606A216800780861606A401C88
:1012E0006062618D491E6185218D491E89B221850B
:1012F00022685369DB435B070BD451B1007810615E
:10130000606A401C6062608D401E6085208D401EBA
:1013100020852A464946204601F0D6FC0028CED139
:10132000208D0028C5D154F83D0B016841F40071AF
:101330000160202004F81E09E67766770020C7E7E1
:10134000FFE70220C4E70000020010000000FFFFDA
:101350002DE9F04186B0044614216846FEF7DAFF15
:101360002F4A2168DFF8BC8000242E48122503266E
:10137000042708F1100891421CD1016841F00201D4
:101380000160006802AA00F002000590C020CDE9CB
:10139000000582E8D00069462348FFF777FDD8F8BA
:1013A000001041F40011C8F80010D8F8000000F453
:1013B000001031E01D4A91422FD1016841F0040133
:1013C0000160016801F004010591016841F001012B
:1013D00001600068694600F0010005905015CDE9F4
:1013E000000502AA124882E8D000FFF74FFD4FF433
:1013F0008070CDE9000502AA694682E8D0000D4858
:10140000FFF744FDD8F8001041F40001C8F80010BF
:10141000D8F8000000F40000059006B0BDE8F081A7
:10142000005400403038024000040240005C00409C
:10143000000802400000024002488168027811441E
:1014400081607047900000200B4810B5016841F49E
:1014500000710160016841F480610160016841F43C
:1014600080710160032000F09FF80F2000F006F863
:1014700000F050F8002010BD003C024030B5054699
:101480001F4887B00024016841F010010160006826
:1014900006A900F01000009001A800F031F90498AE
:1014A000A8B100F04DF940001649174AB0FBF1F120
:1014B0001648491E026040F2E732C0E90324C0E941
:1014C0000114846100F0B8FB040003D015E000F0C3
:1014D00037F9E9E70D4800F023FC04000DD1362070
:1014E00000F034F8102D07D200222946362000F0F3
:1014F0003BF80748056000E0012407B0204630BDF6
:101500004038024040420F0000100040BC12002052
:10151000940000200C4882B0016841F480410160D1
:10152000006800F4804000900748001F016841F007
:10153000805101600068002200F0805000900F216F
:10154000901E02B000F010B844380240002809DBB9
:1015500000F01F02012191404009800000F1E020CD
:10156000C0F8001170470000F0B40E4B1B680C4629
:10157000C3F30223C3F10705042D00D90425191D67
:10158000072901D2002300E0DB1E012606FA05F13F
:10159000491E214099409E40761E16403143F0BCC2
:1015A00004F0F5BA0CED00E0064900F00702086807
:1015B0004FF6FF03184040EA0220034A1043086038
:1015C000704700000CED00E00000FA052DE9F0473F
:1015D0000E46050065D0DFF81481D8F80000F7B298
:1015E00000F00700B04207D288F80070D8F8000079
:1015F00000F00700B04254D128683D4C810712D555
:10160000400703D5206840F4E050206028780007A8
:1016100003D5206840F4604020602068A96820F06D
:10162000F000084320602878C0072DD03049686852
:101630000839012812D0022813D0032811D00968D4
:10164000890700292DDA216821F003010143216077
:10165000FFF71EFD814641F2883A0EE009688903D2
:10166000EFE709688901ECE7FFF712FDA0EB09013C
:10167000514502D90320BDE8F0872068696800F071
:101680000C00B0EB810FEFD1D8F80010404601F00C
:101690000701B14207D90770006800F00700B042A7
:1016A00001D00120E7E72878400705D52068E968E0
:1016B00020F4E050084320602878000706D5206811
:1016C000296920F4604040EAC100206000F058F829
:1016D0002168084AC1F30311515CC84006490860FB
:1016E00006480068FFF7CAFE0020C4E7003C02403D
:1016F00008380240807F00089C00002094000020F1
:101700000F2202600C4A136803F00303436013685E
:1017100003F0F0038360136803F4E053C3601268BE
:101720004FF4E05303EAD20202610448006800F07B
:10173000070008607047000008380240003C024083
:101740000448054900680968044AC1F38221515CD4
:10175000C84070479C00002008380240907F000875
:101760000448054900680968044AC1F34231515CE4
:10177000C84070479C00002008380240907F000855
:10178000154810B5006810F00C02144813D0144925
:10179000042A0FD0082A0ED10F4C241F2268236878
:1017A00002F03F025B0207D52068C0F38810A0FB5F
:1017B000010106E0084610BD2168C1F38811A1FBB4
:1017C00000010023FEF75CFD2168C1F30141491CC3
:1017D0004900B0FBF1F010BD083802400024F400CD
:1017E00040787D012DE9F84F04006ED02078DFF8B5
:1017F0004C93C007A9F104054AD009F1040001681F
:10180000C1F38101012908D00068C0F381000228DA
:101810000AD1D9F80000400206D52868800337D5E0
:1018200060680028E1D033E06068B0F5803F10D0F8
:10183000B0F5A02F286810D020F4803028602868E8
:1018400020F4802028606068A8B1FFF721FC0646DC
:101850000DE0286840F48030F4E740F480202860F0
:10186000F7E700BFFFF714FC801B642873D82868D3
:101870008003F7D50CE0FFF70BFC064605E000BF40
:10188000FFF706FC801B6428F0D828688003F7D493
:101890002078DFF8AC8280074FF0000A3ED5A748D9
:1018A000001D016811F00C0F08D00068C0F3810022
:1018B00002280BD1D9F80000400207D4286880071D
:1018C00016D5E068012800D112E033E1E068B8B134
:1018D0000120C8F80000FFF7DBFB064605E000BF6B
:1018E000FFF7D6FB801B0228C0D828688007F7D5F1
:1018F0002868216920F0F80040EAC10028600DE066
:10190000C8F800A0FFF7C4FB064604E0FFF7C0FBE1
:10191000801B02281FD828688007F7D4207800078A
:1019200022D5864F87486169703771B10121016006
:10193000FFF7AEFB064604E0FFF7AAFB801B022878
:1019400009D838688007F7D50EE0C0F800A0FFF787
:101950009FFB064605E082E0FFF79AFB801B02280A
:101960007DD838688007F7D42078400768D5DFF83D
:10197000CCB100270BF13C0BDBF80000C0000BD40E
:10198000DBF8001041F08051CBF80010DBF80000CC
:10199000012700F0805000906B4E3068C00510D4D5
:1019A000306840F480703060FFF772FB009005E013
:1019B000FFF76EFB0099401A022850D83068C00526
:1019C000F6D55E4EA0686C3601280FD00528306829
:1019D00010D020F001003060306820F0040030604A
:1019E000A068B8B1FFF754FB00900FE0306840F0FA
:1019F0000100F4E740F004003060F7E7FFF748FB30
:101A00000099411A41F28830814266D830688007D7
:101A1000F4D50EE0FFF73CFB009007E0FFF738FB42
:101A20000099411A41F28830814256D830688007C7
:101A3000F4D42FB1DBF8001021F08051CBF8001066
:101A4000A069C8B33D49091D0968C1F38101022994
:101A50004AD00228504607D0C8F8600000E03CE0B9
:101A6000FFF716FB04463BE04746C8F86000FFF767
:101A70000FFB064605E000BFFFF70AFB801B0228AC
:101A80002BD828688001F7D4D4E907010843A16A5C
:101A90002E4A490802EB0141626A41EA8211084379
:101AA00094F82C1040EA0161C9F800100120386652
:101AB000FFF7EEFA044606E03EE000BFFFF7E8FA63
:101AC000001B022809D828688001F7D534E000BF40
:101AD000FFF7DEFA001B022802D90320BDE8F88FC9
:101AE00028688001F4D427E00128F7D0D9F8000055
:101AF000E26900F4800191421CD1226A00F03F01AA
:101B0000914217D147F6C071626A0140B1EB821F62
:101B100010D1A26A4FF0FF3300F4403103EB5202C0
:101B2000B1EB024F06D194F82C1000F07060B0EBCE
:101B3000016F01D00120D1E70020CFE70438024037
:101B400000004742800E4742007000400000FFFF47
:101B50007047704710B590F83C20012A22D001222E
:101B600080F83C20CA688C6822F4407222434C689A
:101B700022F4806222430C6822F4006222430C6942
:101B800022F4805222434C6922F400522243C96954
:101B9000002322F480420A4301684A6480F83C3002
:101BA000002010BD022010BD70B590F83C20012A25
:101BB00032D0012480F83C40022280F83D200368A6
:101BC0005A689D6822F070060A6832435A60134BC7
:101BD00002689A4214D0B2F1804F11D0104B9A4251
:101BE0000ED0104B9A420BD00F4B9A4208D00F4B9D
:101BF0009A4205D00E4B9A4202D00E4B9A4204D123
:101C0000496825F080031943916080F83D40002128
:101C100080F83C10084670BD022070BD00000140F5
:101C20000004004000080040000C00400004014097
:101C3000004001400018004010B5040003D094F8A3
:101C40003D0010B107E0012010BD002084F83C00E9
:101C5000204600F01FF8022084F83D00211D206876
:101C600003F04CFA012084F8460084F83E0084F822
:101C70003F0084F8400084F8410084F8420084F872
:101C8000430084F8440084F8450084F83D000020B7
:101C900010BD000008B51D4A01681D48914207D1DA
:101CA000016841F001010160006800F001000BE0F3
:101CB000184A91420AD11648001F016841F02001DC
:101CC0000160006800F02000009008BD124A9142B7
:101CD00011D1016841F0020101600068002200F0AA
:101CE0000200009005212B20FFF73EFCBDE80840D4
:101CF0002B20FFF72BBC094A9142E6D1016841F441
:101D000080310160006800F48030DDE700000140B0
:101D100044380240001400400004014000400140EB
:101D200090F83D10012901D001207047022180F870
:101D30003D100168CA6842F00102CA60006811499A
:101D4000884214D0B0F1804F11D00F4988420ED094
:101D50000E4988420BD00E49884208D00D4988426E
:101D600005D00D49884202D00C49884204D18168CF
:101D700001F00701062903D0016841F0010101606B
:101D800000207047000001400004004000080040AF
:101D9000000C0040000401400040014000180040D9
:101DA00070B5044690F83C000025012817D00126A4
:101DB00084F83C60022084F83D002068826822F0AC
:101DC000770222F47F4282600868502838D00DDC08
:101DD00020284FD005DC90B3102811D14AE0022012
:101DE00070BD302846D040280AD13BE060282FD073
:101DF00070280DD0B0F5805F03D0B0F5005F12D031
:101E0000012584F83D60002084F83C00284670BD20
:101E1000CB68D1E90121206803F0E9F920688168E5
:101E200041F0770109E0CB68D1E90121206803F096
:101E3000DEF92068816841F480418160E1E719E0C2
:101E4000CA684968206803F0A7FA5021206806E0B4
:101E5000CA684968206803F0B0FA6021206803F07E
:101E6000D0F9CEE7CA684968206803F095FA4021A6
:101E70002068F4E7226801461046F0E72DE9F041BA
:101E80000D46040003D094F83D0018B108E001208D
:101E9000BDE8F081002084F83C00204600F040F8C6
:101EA000022084F83D002068816844F207029143D3
:101EB0008160211D206803F021F9226890689169F2
:101EC000166A2B68AF69034340F20330814341EA4D
:101ED0000721A868EF6908434FF6FC418843E96889
:101EE00040EA0720014328692F6A000140EA0730D1
:101EF000084369686D6926F0AA0646EA0515294374
:101F000093602268906154F8460B0162012004F846
:101F10001F09E0752076E0762077A0750020B7E7EE
:101F200070B586B0044614216846FEF7F3F94149BE
:101F3000236800243F4A103902253F48B3F1804FFF
:101F400014D03E4EB3423FD1136843F002031360F6
:101F5000126802F0020205920A6842F001020A6069
:101F6000096801F001010591C0215CE0136843F0AC
:101F700001031360126802F0010205920A6842F040
:101F800001020A600A6802F0010205920A6842F042
:101F900002020A600968012601F002010591202170
:101FA0000091CDE90154CDE903466946FEF76EFF85
:101FB00008200090CDE90154CDE903466946204848
:101FC000FEF764FF06B070BD1E4EB34217D1106815
:101FD00040F004001060106800F0040005900868EC
:101FE00040F0080008600868694600F008000590A5
:101FF0004FF440500090CDE90154134817E0134EC0
:10200000B342DFD1136843F008031360126802F093
:10201000080205920A6842F001020A60096801F0AC
:102020000101059103210091CDE901546946CDE9F3
:102030000345C5E74038024000000240000400406C
:102040000004024000080040000C0240000C004068
:1020500070B590F83E60044690F83F5090F84230DA
:1020600090F84320022021B104290ED0012E1BD16B
:1020700014E0012E18D1012B16D184F83E0084F80B
:10208000420001220021206820E0012D0CD1012A0C
:102090000AD184F83F0084F8430014E0012D03D1F5
:1020A000012B01D1012A01D0012070BD84F83E002E
:1020B00084F83F0084F8420084F8430001220021A4
:1020C000206803F087F801220421206803F082F8D9
:1020D0002068016841F001010160002070BD704777
:1020E0002DE9F04104460068C66805694FF0000715
:1020F000A90713D5B10711D5F91E01610120207779
:10210000206880698007204602D0FFF7E8FF04E0DE
:1021100000F0D6F8204600F085F92777680716D535
:10212000700714D521686FF0040008610220207741
:102130002068806910F4407F204602D0FFF7CFFF6F
:1021400004E000F0BDF8204600F06CF9277728077E
:1021500015D5300713D521686FF0080008610420F9
:1021600020772068C0698007204602D0FFF7B7FFBC
:1021700004E000F0A5F8204600F054F92777E806BF
:1021800016D5F00614D521686FF0100008610820FC
:1021900020772068C06910F4407F204602D0FFF706
:1021A0009EFF04E000F08CF8204600F03BF9277712
:1021B000E80708D0F00706D021686FF00100086139
:1021C000204600F095F9280608D5300606D5216886
:1021D0006FF0800008612046FFF7BAFC680608D55A
:1021E000700606D521686FF040000861204600F0B7
:1021F00089F9A8060AD5B00608D521686FF0200035
:1022000008612046BDE8F041FFF7A3BCBDE8F081BE
:1022100030B587B0044614216846FEF77BF8246881
:10222000214D0021214A02232148AC420FD11468DC
:1022300044F010041460126802F0100205924FF48A
:10224000D4420092CDE901310391012110E0194DF2
:10225000AC4213D1146844F010041460126802F008
:102260001002059260220092CDE901310391032111
:1022700004916946FEF70AFE07B030BD0E4884425D
:10228000FAD1106840F002001060106800F00200FF
:102290000590E0000090CDE901310920CDE903105F
:1022A00069460648E6E70000000001403038024079
:1022B00000100240004001400018004000040240AD
:1022C000704770B5044690F83C0000260D46012882
:1022D0000FD0012084F83C006AB1042A1DD0082ADE
:1022E0002FD00C2A3FD00126002084F83C00304635
:1022F00070BD022070BD206802F08CFF20688169EB
:1023000041F0080181612068816921F00401816147
:10231000206881692A69114311E0206802F0AAFF50
:102320002068816941F4006181612068816921F43C
:1023300080618161206881692A6941EA02218161A5
:10234000D2E7206802F0CCFF2068C16941F00801A3
:10235000C1612068C16921F00401C1612068C169BF
:102360002A69114311E0206802F0EEFF2068C1697C
:1023700041F40061C1612068C16921F48061C161DB
:102380002068C1692A6941EA0221C161ACE710B540
:10239000040003D094F83D0010B107E0012010BD07
:1023A000002084F83C00204600F01EF8022084F84B
:1023B0003D00211D206802F0A1FE012084F84600A6
:1023C00084F83E0084F83F0084F8400084F841001F
:1023D00084F8420084F8430084F8440084F84500FF
:1023E00084F83D00002010BD08B500680B49884204
:1023F00012D10B48016841F04001016000680022E1
:1024000000F04000009005212B20FFF7ADF8BDE85B
:1024100008402B20FFF79AB808BD000000180040C4
:10242000403802407047000010B50446022249B10E
:1024300004290ED0082913D094F84100012816D0A1
:10244000012010BD94F83E000128F9D184F83E2007
:102450000FE094F83F000128F2D184F83F2008E013
:1024600094F840000128EBD184F8402001E084F882
:1024700041200122206802F0ADFE16492068164A6C
:10248000884201D0904203D1436C43F4004343643B
:102490002068884213D0B0F1804F10D00F49884295
:1024A0000DD00F4988420AD00E49884207D0904289
:1024B00005D00D49884202D00C49884204D1816878
:1024C00001F00701062903D0016841F00101016014
:1024D000002010BD00000140000401400004004045
:1024E00000080040000C004000400140001800407F
:1024F00000680349884201D1FEF79EBF7047000083
:10250000001000407047704710B5044600684069ED
:1025100094F84110C0F3C010212911D180B1206876
:10252000143050E8001F21F0800140E80012002A1A
:10253000F5D1A06B08B1FEF7DBFA204603F042F9B3
:102540002068406994F84210C0F38010222911D10C
:1025500080B12068143050E8001F21F0400140E8AD
:102560000012002AF5D1E06B08B1FEF7C1FA20464F
:1025700003F001F9002010BD70470000F8B50168B4
:1025800004460868CA684B6910F00F0F4FF0000549
:1025900059D003F0010602F49077374365D0C107A4
:1025A00005D0D10503D5616C41F00101616441079B
:1025B00005D5D90703D0616C41F002016164810740
:1025C00005D5D90703D0616C41F0040161640107AE
:1025D00007D502F02001314303D0616C41F00801BE
:1025E0006164616C00293AD0800604D5900602D55A
:1025F000204603F0F5F820684069616CC0F3801054
:10260000090700D460B3204603F0B5F8206840699C
:10261000400621D52068143050E8001F21F0400109
:1026200040E80012002AF5D1E06BA8B16E490165BF
:10263000E06BFEF7A6FA002811D0E06B016D01B047
:10264000BDE8F040084783060FD593060DD5204618
:10265000BDE8F84003F0C4B82046FFF78DFFF8BD91
:102660002046FFF789FF6564F8BD266B2023012E05
:102670007DD1C6067BD5D60679D508684868009016
:1026800048694FF00206400641D5E16B0868406892
:102690000004000CE8D0A28D8242E5D9E085C8692B
:1026A000B0F5807F2DD020680C3050E8001F21F459
:1026B000807140E80012002AF5D12068143050E8FB
:1026C000001F21F0010140E80012002AF5D1206826
:1026D000143050E8001F21F0400140E80012002AA9
:1026E000F5D184F84230256320680C3050E8001F93
:1026F00021F0100140E80012002AF5D1E06BFEF74E
:10270000F7F96663A08DE18D401A81B22AE0A08DB1
:10271000E18D401A81B2E08D0028A5D00029A3D018
:1027200022680C3252E8000F20F4907042E8000753
:10273000002FF5D12068143050E8002F22F001025C
:1027400040E80027002FF5D184F842302563206847
:102750000C3050E8002F22F0100240E80023002B3C
:10276000F5D166632046FFF7CEFEF8BDFFE705060C
:102770002BD5150629D594F841002128F5D1A0685C
:10278000B0F5805F01D12069B0B1206A411C21629F
:10279000216800784860E08C401E0004000CE08452
:1027A000E3D12068C16821F08001C1602068C16860
:1027B00041F04001C160D8E7206A0088C0F30800FA
:1027C0004860206A801C2062E5E74006CDD55006AF
:1027D000CBD5CA68204622F04002CA6084F8413056
:1027E00000F00BFAC1E700007956000870B504004C
:1027F00004D094F84100002510B106E0012070BD1E
:1028000084F84050204600F023F8242084F841004A
:102810002068C16821F40051C160204603F042F8ED
:102820002068016921F4904101612068416921F02B
:102830002A0141612068C16841F40051C1606564AA
:10284000202084F8410084F842006563002070BDB8
:102850002DE9F04F87B0054614216846FDF75AFD73
:10286000C348DFF8088310380221D5F800C00024DF
:10287000BF4B0322DFF8FCE28E0607154FF0080A73
:102880004FF48079C4453CD1D3F800C04CF4002CFF
:10289000C3F800C01B6803F400230593036843F0EA
:1028A00004030360006800F00400059090028DE8C6
:1028B0001300CDE9032A69467046FEF7E7FADFF810
:1028C000BC82AD494046C8F80010C0E90164C0E9C7
:1028D0000347C8F81440C0E90649C8F82040C8F8C2
:1028E0002440FEF731FA08B1FEF7EAF8C5F83C805B
:1028F000002205213420C8F83850FEF735FE342078
:102900005CE0DFF87C82C4455DD1D3F800C04CF4B4
:10291000801CC3F800C01B6803F480130593036890
:1029200043F004030360036803F0040305930368A2
:1029300043F00803036000688B4600F00800059030
:102940004FF48050CDE9000B0DF1080C90468CE857
:10295000100569467046FEF799FA0420CDE9000B90
:102960000DF1080B69468BE810058648FEF78EFAD4
:10297000DFF80882804908F1600830394046C8F81D
:102980000010C0E90164C0E90347C8F814404FF4DF
:102990008031C8F81840C8E90791C8F82440FEF70C
:1029A000D3F908B1FEF78CF8C5F83C800022052168
:1029B0003520C8F83850FEF7D7FD3520FEF7C6FDA4
:1029C00007B0BDE8F08FDFF8C0814FF0070BC445BA
:1029D00043D1674B1B1DD3F800C04CF0100CC3F85B
:1029E00000C01B6803F010030593036843F0010364
:1029F0000360006800F0010005904FF4C0608DE8AE
:102A00001300CDE9032B69466048FEF73FFADFF873
:102A10006C815F4908F1C0084046C8F80010C0E961
:102A20000164C0E90347C8F814404FF48031C8F886
:102A30001840C8E90791C8F82440FEF785F908B1A5
:102A4000FEF73EF8C5F83C80002205212520C8F895
:102A50003850FEF789FD2520B0E7DFF83881C445FE
:102A60003FD1D3F800C04CF4003CC3F800C01B6851
:102A700003F400330593036843F001030360006827
:102A800000F0010005900C208DE81300CDE9032B28
:102A900069463E48FEF7FAF93749DFF8FC804831CD
:102AA0004046C8F80010C0E90164C0E90347C8F80F
:102AB00014404FF48031C8F81840C8E90791C8F8AD
:102AC0002440FEF741F908B1FDF7FAFFC5F83C8054
:102AD000002205212620C8F83850FEF745FD2620A3
:102AE0006CE72E4DAC4520D11D6845F480251D6056
:102AF0001B6803F480230593036843F00803036015
:102B0000006800F0080005904FF440708DE8130055
:102B1000CDE9032B69461B48FEF7B8F900220521D1
:102B20002720FEF721FD272048E71D4B9C457FF419
:102B300047AF0F4B1B1D1D6845F020051D601B682E
:102B400003F020030593036843F004030360006867
:102B500000F004000590C0208DE81300CDE9032AA1
:102B600069467046FEF792F92AE70000004C0040E3
:102B70004038024000080240406002403C11002002
:102B800000500040000C02400010014000000240D4
:102B900040640240004400405C12002000480040B5
:102BA0000014014090F84230202B01D002207047E1
:102BB00021B11AB10023036302F0FABE012070476D
:102BC00090F84230202B01D00220704721B11AB179
:102BD0000023036302F034BF012070470449884298
:102BE00004D1012203490248FFF7EABF7047000001
:102BF000AC100020C401002070477047FEE7016858
:102C00004A69D24352050FD46FF480624A610021B1
:102C100040F8301F202242738173026942F004029F
:102C2000026101730120704700207047F8B5044627
:102C3000C06A1E460D461746082807D0012805D051
:102C400010F5803F02D0206B122804D12068016863
:102C500041F480710160134600224FF001112046BB
:102C6000009600F05DF840B120680068C00502D50C
:102C70004FF4007020640320F8BD2069B0F5804F48
:102C80000ED00620216800EAD51040F0F00008615F
:102C900033463A460B49204600F08AF878B902E0FC
:102CA00005F0FE0000E0E8B22168086105493346FE
:102CB0003A46891F204600F07BF80028DCD001202E
:102CC000F8BD00000800010070B516460D46044628
:102CD0001EE02046FFF793FF08B1012070BD681C7D
:102CE00016D0FEF7D5F9801BA84200D885B9206818
:102CF0004069C04340070BD5002044F8300F202125
:102D00006173A073216941F0200121612073E4E720
:102D100020684069C0434007DBD4002070BD00003C
:102D20002DE9F047984617460D460446C1F307467D
:102D3000DDF820902AE000BFB8F1FF3F26D0FEF773
:102D4000A7F9A0EB0901414502D8B8F1000F1DD148
:102D50002068012E16D0806925EA00000004000CCE
:102D600012D00020B84211D1002044F8300F2021A9
:102D70006173A073216941F020012161207301205A
:102D8000BDE8F0874069E7E70120EBE72068012E06
:102D90000AD0806925EA00000004000C06D000205B
:102DA000B842C9D00020EBE74069F3E70120F7E71C
:102DB0002DE9F047984616460D4604464FF00009A7
:102DC0004FF0200AC1F3074723E020684069C04361
:102DD000400515D42068016841F400710160216844
:102DE0006FF480604861C4F8309084F83DA084F8A6
:102DF0003E90216C41F00401216484F83C9021E074
:102E0000701C06D0FEF744F9A0EB0800B04203D8CE
:102E100016B1012F1FD021E02068012F15D0806945
:102E200025EA00000004000C18D000BF44F8309FD1
:102E300084F80DA084F80E90216941F020012161F1
:102E400084F80C900120BDE8F087406925EA000075
:102E50000004000CEAD12068406901E02068806924
:102E600025EA00000004000CAFD1ECE770B516466F
:102E70000D4604461EE02046FFF7C1FE08B10120C2
:102E800070BD681C16D0FEF703F9801BA84200D85D
:102E900085B920684069C04300060BD5002044F87E
:102EA000300F20216173A073216941F0200121615D
:102EB0002073E4E720684069C0430006DBD40020AB
:102EC00070BD000013489FED140A1449C068427891
:102ED000522A0DD1B0F906209FED111A00EE902A6A
:102EE000F8EEE00A60EE800A60EE810AC1ED050AA4
:102EF0004278532A0DD1B0F9060000EE900AF8EEA0
:102F0000E00A20EE800ADFED070A20EE200A81EDBC
:102F1000000A7047A0010020000000382C080020A3
:102F20000000FA440000344390ED021A90ED000ACC
:102F3000194A71EE400AC0ED030A90ED040AD0ED83
:102F4000051A30EEC00A20EE210AD0ED061A01EE75
:102F5000A00AD0ED011A30EE210A10EE101A80ED11
:102F6000010AC0ED040A914202D99FED0C0A06E065
:102F700010EE101A0A4A914203DD9FED0A0A80ED15
:102F8000010AB5EEC01AF1EE10FA03D19FED060A60
:102F900080ED010A70470000007882C6007882C682
:102FA00000788246007882460000000090ED021A08
:102FB00090ED000A194A71EE400AC0ED030A90ED47
:102FC000040AD0ED051A30EEC00A20EE210AD0ED39
:102FD000061A01EEA00AD0ED011A30EE210A10EE19
:102FE000101A80ED010AC0ED040A914202D99FED4A
:102FF0000C0A06E010EE101A0A4A914203DD9FED1A
:103000000A0A80ED010AB5EEC01AF1EE10FA03D1FA
:103010009FED060A80ED010A70470000007882C625
:10302000007882C600788246007882460000000060
:1030300090ED021A90ED000A194A71EE400AC0EDB7
:10304000030A90ED040AD0ED051A30EEC00A20EE16
:10305000210AD0ED061A01EEA00AD0ED011A30EED9
:10306000210A10EE101A80ED010AC0ED040A914207
:1030700002D99FED0C0A06E010EE101A0A4A91429E
:1030800003DD9FED0A0A80ED010AB5EEC01AF1EEEC
:1030900010FA03D19FED060A80ED010A7047000087
:1030A000007882C6007882C6007882460078824620
:1030B0000000000090ED021A90ED000A194A71EE2E
:1030C000400AC0ED030A90ED040AD0ED051A30EE77
:1030D000C00A20EE210AD0ED061A01EEA00AD0EDBA
:1030E000011A30EE210A10EE101A80ED010AC0ED2F
:1030F000040A914202D99FED0C0A06E010EE101A64
:103100000A4A914203DD9FED0A0A80ED010AB5EEFD
:10311000C01AF1EE10FA03D19FED060A80ED010A04
:1031200070470000007882C6007882C60078824628
:10313000007882460000000010B500214F48FFF7DC
:1031400073F904214D48FFF76FF908214B48FFF749
:103150006BF90C214948FFF767F900214848FEF751
:1031600077FF04214648FEF773FF00214548FEF72C
:103170006FFF04214348FEF76BFF00214248FEF732
:1031800067FF04214048FEF763FF00213F48FEF738
:103190005FFF04213D48FEF75BFF01F080F83C48EB
:1031A00000F0EEFF3B4800F021FF3B4800F036FF07
:1031B0003A4800F033FF3A4800F030FF394800F059
:1031C0002DFF00F049FF2520FEF7C0F92720FEF76C
:1031D000BDF93420FEF7BAF93520FEF7B7F92C49CE
:1031E000012224313048FFF7EBFC294C2F4822788C
:1031F000A168FFF7D7FC94F870202D48A16FFFF766
:10320000D1FC94F860202B48A16EFFF7CBFCB4F8FA
:1032100042202948A16CFFF7C5FC24480068C1681A
:1032200041F01001C16024480068C16841F01001FC
:10323000C16020480068C16841F01001C1601C48AD
:103240000068C16841F01001C1600020FDF724FB57
:103250000021022000F06AF818490020401C884232
:10326000FCDB0020FDF718FB0021022000F05EF8D7
:10327000BDE81040002003F0D5BB0000040D002085
:103280004C0D0020940D0020DC0D0020240E0020A9
:10329000A0010020200200203C0200209007002016
:1032A000B0070020D0070020AC1000201C10002028
:1032B00064100020D40F00208C0F002014AE4701B2
:1032C00010B5164C01212046FDF7D8FE14490870B0
:1032D000CA7820EA020342404B7082438A70C87069
:1032E00002212046FDF7CAFE0E490870CA7820EA7E
:1032F000020342404B7082438A70C870042120460A
:10330000FDF7BCFE08490870CA7820EA0203424073
:103310004B7082438A70C87010BD000000080240E4
:1033200002000020060000200A0000200B4B0128AC
:1033300007D002280DD003280ED1981421B1012204
:1033400003E04FF48060F9E7002201461846FDF7DC
:103350009ABE4FF40060F1E770470000000402409D
:1033600070470000194808B5016841F48001016008
:10337000016801F480010091016841F400110160CD
:103380000068002200F40010009005210B20FEF7D9
:10339000EBF80B20FEF7DAF8002205210D20FEF7EE
:1033A000E3F80D20FEF7D2F8002205211020FEF7E9
:1033B000DBF81020FEF7CAF8002205213A20FEF7BC
:1033C000D3F8BDE808403A20FEF7C0B830380240D4
:1033D00010B51C4A00211C4802F036FD1B4C194A4E
:1033E0000021606124321A4802F02EFD154AA061C6
:1033F00048320021174802F027FD124AE0616C3282
:103400000021154802F020FD0E4A20629032002172
:10341000124802F019FD0B4A6062B43200211048D4
:1034200002F012FD074AA062D83200210D4802F0D6
:103430000BFD044AE062FC3200210B4802F004FD5F
:10344000206310BD587E0008654F00085C00002016
:1034500039310008C93F0008D93F00089B0900081E
:10346000B30800081D4F0008E15300082DE9F0479C
:1034700086B014216846FCF74DFF474800240168D8
:1034800041F010010160016801F01001059101682F
:1034900041F080010160016801F08001059101683F
:1034A00041F004010160016801F004010591016827
:1034B00041F001010160016801F00101059101681D
:1034C00041F002010160016801F00201059101680B
:1034D00041F0080101600068304F00F0080049F237
:1034E00084150590002229463846FDF7CCFDDFF80B
:1034F000B080002230214046FDF7C5FDDFF8A490E2
:10350000002243F603414846FDF7BDFDDFF898A0D1
:10351000002208215046FDF7B6FD00950125CDE9B2
:103520000154694638460394FDF7B0FC0826CDE9FE
:103530000064694638460294FDF7A8FC07208DE830
:10354000310069464046FDF7A1FC30200227039474
:103550008DE8A10069464046FDF798FC03200394DE
:103560008DE8A10069464846FDF790FC4FF4705085
:103570000090CDE90154694648460394FDF786FC66
:103580000096CDE90154694650460394FDF77EFC50
:1035900006B0BDE8F087000030380240001002405D
:1035A0000008024000040240000C02400D4810B523
:1035B0000B4901600C49416000214FF48042816059
:1035C000C0E9031241618161C1610162FDF766FDDD
:1035D000002803D0BDE81040FDF772BA10BD00000E
:1035E000005400405C0C0020801A06000D4810B505
:1035F0000B4901600C49416000214FF48042816019
:10360000C0E9031241618161C1610162FDF746FDBC
:10361000002803D0BDE81040FDF752BA10BD0000ED
:10362000005C0040B00C0020A086010010B588B0FE
:103630001C216846FCF76EFE154814490024C0E9B9
:1036400000144FF6FF71C0E9024104618461FEF786
:103650009EFE08B1FDF734FA6020CDE90004029423
:10366000002269460A480494FEF72BFE08B1FDF7D4
:1036700027FA042269460648FEF723FE08B1FDF743
:103680001FFA0348FEF7C4FD08B010BD0018004043
:10369000440F002010B596B000240F94109411949C
:1036A000129413941C2168461494FCF733FE2021D5
:1036B00007A8FCF72FFE3448324901600A21C0E90F
:1036C000011444F23C11C0E9031444618461FEF723
:1036D000B3FA08B1FDF7F4F94FF480500F900FA939
:1036E0002948FEF75DFB08B1FDF7EAF92648FEF729
:1036F0004EFE08B1FDF7E4F9139413A9224814947F
:10370000FEF752FA08B1FDF7DBF96020CDE90004BD
:103710000294039404940594002269461A4806947E
:10372000FEF7CFFD08B1FDF7CBF904226946164834
:10373000FEF7C7FD08B1FDF7C3F908226946124834
:10374000FEF7BFFD08B1FDF7BBF90C2269460E4834
:10375000FEF7B7FD08B1FDF7B3F907940894099493
:103760004FF400500A94CDE90B4007A906480E9487
:10377000FEF7F0F908B1FDF7A3F90348FEF748FD9D
:1037800016B010BD00000140040D002010B58CB033
:1037900024216846FCF7BEFD0024164809944FF02A
:1037A00080410A94C0E900144FF6FF71C0E902415C
:1037B000046184610320CDE9000401200421CDE9E6
:1037C00002040491CDE9054007946946094808942C
:1037D000FEF754FB08B1FDF773F9099409A90548F0
:1037E0000A94FEF7E1F9002801D0FDF769F90CB061
:1037F00010BD00004C0D002010B58CB0242168468F
:10380000FCF788FD00241648099414490A94C0E97D
:1038100000144FF6FF71C0E9024104618461032086
:10382000CDE9000401200421CDE902040491CDE991
:103830000540079469460A480894FEF71FFB08B143
:10384000FDF73EF9099409A905480A94FEF7ACF979
:10385000002801D0FDF734F90CB010BD0004004081
:10386000940D002010B58CB024216846FCF752FD61
:1038700000241648099414490A94C0E900144FF62C
:10388000FF71C0E90241046184610320CDE90004B5
:1038900001200421CDE902040491CDE905400794FB
:1038A00069460A480894FEF7E9FA08B1FDF708F9F5
:1038B000099409A905480A94FEF776F9002801D071
:1038C000FDF7FEF80CB010BD00080040DC0D002034
:1038D00010B58CB024216846FCF71CFD0024164866
:1038E000099414490A94C0E900144FF6FF71C0E925
:1038F0000241046184610320CDE900040120042118
:10390000CDE902040491CDE90540079469460A48CF
:103910000894FEF7B3FA08B1FDF7D2F8099409A9A3
:1039200005480A94FEF740F9002801D0FDF7C8F8D1
:103930000CB010BD000C0040240E00201CB500246B
:103940000E4800940C4901940160A721C0E90114BC
:103950004FF6FF718461C160FEF76EF908B1FDF7A3
:10396000AFF80094694605480194FEF71DF9002858
:1039700001D0FDF7A5F81CBD001400406C0E00201E
:1039800010B586B000241748009401940294039463
:10399000049413490594C0E900144FF6FF71C0E97F
:1039A0000241046144618461FEF746F908B1FDF704
:1039B00087F84FF48050009069460A48FEF7F0F906
:1039C00008B1FDF77DF8049404A906480594FEF7B4
:1039D000EBF8002801D0FDF773F806B010BD000029
:1039E00000040140B40E002010B58CB000240794F0
:1039F000089409941C2168460A94FCF78BFC1D4826
:103A00001B49C0E900144FF6FF71C0E9024104618F
:103A10008461FEF711F908B1FDF752F84FF48050B8
:103A2000079007A91348FEF7BBF908B1FDF748F85E
:103A30001048FEF7ACFC08B1FDF742F86020CDE974
:103A400000040294002269460A480494FEF739FCF7
:103A500008B1FDF735F8042269460648FEF731FC47
:103A600008B1FDF72DF80348FEF7D2FB0CB010BDEE
:103A700000400140FC0E00200C4810B50A490160CE
:103A80004FF416514160002181600C22C160C0E9F1
:103A900004128161C161FEF7A9FE002803D0BDE8D0
:103AA0001040FDF70DB810BD004C00408C0F0020F9
:103AB0000C4810B50A4901604FF4E1314160002122
:103AC00081600C22C160C0E904128161C161FEF70E
:103AD0008DFE002803D0BDE81040FCF7F1BF10BDFB
:103AE00000500040D40F00200C4810B50A49016076
:103AF0004FF4E1314160002181600C22C160C0E9D6
:103B000004128161C161FEF771FE002803D0BDE897
:103B10001040FCF7D5BF10BD001001401C10002064
:103B20000C4810B50A4901604FF461314160002131
:103B300081600C22C160C0E904128161C161FEF79D
:103B400055FE002803D0BDE81040FCF7B9BF10BDFA
:103B500000440040641000200C4810B50A49016080
:103B60004FF416514160002181600C22C160C0E910
:103B700004128161C161FEF739FE002803D0BDE85F
:103B80001040FCF79DBF10BD00480040AC10002065
:103B90000C4810B50A4901604FF4E1314160002141
:103BA00081600C22C160C0E904128161C161FEF72D
:103BB0001DFE002803D0BDE81040FCF781BF10BDFA
:103BC00000140140F4100020FEE700002DE9F0474A
:103BD000ED48EE4FEE4B0068EE49EF4ADFF8BC834C
:103BE000EF4CF04DF04E10B1012849D0C0E0D1EDBE
:103BF000003A91ED013AD1ED020A92ED002A73EEFE
:103C0000C32AD2ED011A33EE833A97ED021A32EE4F
:103C1000A00A73EE203A33EE603A30EE020A72EEFA
:103C2000E00A73EE823A33EE023A30EE210A70EE89
:103C3000820A73EEE13A33EE613A30EE014A93EDD7
:103C4000010A73EE813A70EEA10AF8EEC04A33EE33
:103C5000413A70EEC10A34EE244A88ED024AB8EEC9
:103C6000C04A73EE843AC4ED023AF8EEC03AB8EEB8
:103C7000C00A33EE233A30EE800A85ED023A75E051
:103C800093ED010AB8EEC00A01F04EF9D1EC020A38
:103C900070EEC10A91ED021A70EE810A92ED001ADF
:103CA00070EE810A92ED011A70EE810A97ED021A08
:103CB00070EE810A30EE200A88ED020A93ED010AC7
:103CC000B8EEC00A01F030F9D1EC020A70EE810AB8
:103CD00091ED021A70EE810A92ED001A70EE810ADF
:103CE00092ED011A70EEC10A97ED021A70EE810A88
:103CF00030EE200A84ED020A93ED010AB8EEC00A04
:103D000001F012F9D1EC020A70EE810A91ED021A6B
:103D100070EEC10A92ED001A70EE810A92ED011A5E
:103D200070EEC10A97ED021A70EEC10A30EE200A59
:103D300085ED020A93ED010AB8EEC00A01F0F4F82D
:103D4000D1EC020A70EEC10A91ED021A70EEC10ABE
:103D500092ED001A70EE810A92ED011A70EE810A5E
:103D600097ED021A70EEC10A30EE200A86ED020AC3
:103D700098F81C00434660B18848FFF7D5F888489A
:103D8000FFF714F98748FFF753F98748FFF792F9CF
:103D900052E091ED004AD1ED013AD1ED021A92EDD7
:103DA000001A34EE633A34EE234AD2ED010A7F481A
:103DB00033EE210A74EE213A34EE614A73EE611A51
:103DC00030EE010A73EE813A34EE014A31EE811A87
:103DD00030EE202A92ED020A73EEE03A34EE604AA9
:103DE00071EE200A72EE002A73EE803A34EE404AF9
:103DF00090ED022A30EEC00A6D4872EE822A73EE10
:103E0000823A70EE420AB3EE090A34EE424A22EEDA
:103E1000801A83ED011A23EE801A84ED011A24EE34
:103E2000001A20EE800A85ED011A86ED010A90ED58
:103E3000000A604880ED010A93ED010ADFF87881FD
:103E40005E4FB5EEC00A9946F1EE10FA4FF480517C
:103E50004FF4004A0BDD01224046FDF714F9002221
:103E600051464046FDF70FF999ED010A0CE000229A
:103E70004046FDF708F9012251464046FDF703F997
:103E800099ED010AB1EE400ABCEEC00A10EE100A2C
:103E9000386494ED010A4FF48079B5EEC00AF1EE72
:103EA00010FA0CDD012280214046FDF7ECF80022DB
:103EB00049464046FDF7E7F894ED010A0DE000227F
:103EC00080214046FDF7DFF8012249464046FDF7D4
:103ED000DAF894ED010AB1EE400ABCEEC00A10EE29
:103EE000100AF86395ED010A354CB5EEC00AF1EE03
:103EF00010FA0CDD012211462046FDF7C4F800221D
:103F000002212046FDF7BFF895ED010A0DE00022E1
:103F100001212046FDF7B7F8012202212046FDF7D6
:103F2000B2F895ED010AB1EE400ABCEEC00A10EEFF
:103F3000100AB86396ED010A224CB5EEC00AF1EE04
:103F400010FA0CDD012220212046FDF79CF800220A
:103F500010212046FDF797F896ED010A0DE00022AA
:103F600020212046FDF78FF8012210212046FDF781
:103F70008AF896ED010AB1EE400ABCEEC00A10EED6
:103F8000100A7863BDE8F0875C000020FC07002081
:103F90003400002008080020F00700203C02002028
:103FA00090070020B0070020D00700201408002050
:103FB0002C08002074020020001002400000014084
:103FC0000004024000080240FEF77CFFFCF77AFD87
:103FD000012001F0FDFEF7E7FFF772F9FCF70CFC9A
:103FE000FCF7E4FC1E2001F0F3FEF5E70021016080
:103FF000416081609FED060AC16080ED040A9FED7B
:10400000050A80ED050A9FED040A80ED060A704757
:104010000000C344959E6B430000C8429FED0B0A0D
:104020000C4980ED000A80ED010A80ED020A80ED66
:10403000030A80ED040A9FED060A80ED050AB2EE40
:104040000E0A80ED060A0120087770470000000084
:1040500000008C423C0200203848B8EE000A0121E2
:1040600080ED020A9FED360ADFED370A80ED030A84
:104070009FED340A9FED361A80ED040A80F82C106B
:10408000C0ED090A3030B0EE0C0A80ED020AB0EE45
:10409000040A80ED030A9FED2D0A002280ED040A38
:1040A00080F82C1080ED091A3030B1EE0C0A80ED4A
:1040B000020A9FED280A80ED030A80ED040A80F8C9
:1040C0002C2080ED091A9FED241A303080ED021A61
:1040D0009FED221A80ED031A9FED211A80ED041A3C
:1040E00080F82C109FED1F1AC0ED090A80ED011A0F
:1040F0009FED1D1A303080ED021A9FED1C1A80EDE5
:10410000031A9FED1B1A80ED041A80F82C10C0EDE5
:10411000090ADFED180AC0ED010ADFED170A303099
:10412000C0ED020A80ED030A80ED040A9FED130A38
:1041300080F82C2080ED070A7047000074020020F0
:10414000000000800AD723BD00401C469A99993F81
:104150000000FA4300000000CDCC5CC0CDCCCCBE4A
:104160008FC2F5BE0000F0429A9919C03333B3BE36
:104170007B14AEBE000020430000C8C20000C8424D
:1041800070B504460B20207040256580284601F05C
:10419000E9FDA060207801F0E5FDE060C32084F82F
:1041A0007000E800A4F872001248A06700F50070E3
:1041B000E067092084F86000A4F86250284601F006
:1041C000D1FDA06694F8600001F0CCFDE0660D2002
:1041D00084F84000A4F84250284601F0C3FDA064D2
:1041E00094F8400001F0BEFDE064002084F8240053
:1041F00070BD0000CD040020FEE7000010B50021D6
:10420000074C0A46002004EBC1131A54401CC0B2EC
:104210008028FAD3491CC9B20829F3D310BD000085
:104220005C080020F0B57F282AD83F2928D88418B8
:10423000802C02D9C0F18002D2B2CC18402C02D915
:10424000C1F14003DBB20126DFF838E087180B44E8
:1042500014E001F0070206FA02F5CA0804460EEB64
:10426000C21207E012F804C02CEA050C02F804C0E0
:10427000641CE4B2A742F5D8491CC9B28B42E8D805
:10428000F0BD00005C08002000204FF47A7200218D
:10429000491C9142FCD3401C9042F8D3704710B5A2
:1042A000FFF7F2FFAE2000F0C5F9D52000F0C2F90B
:1042B000802000F0BFF9A82000F0BCF93F2000F0FA
:1042C000B9F9D32000F0B6F9002000F0B3F940208E
:1042D00000F0B0F9A12000F0ADF9C82000F0AAF973
:1042E000DA2000F0A7F9122000F0A4F9812000F0F4
:1042F000A1F9CF2000F09EF9D92000F09BF9F12020
:1043000000F098F9DB2000F095F9302000F092F9E8
:10431000A42000F08FF9A62000F08CF98D2000F089
:1043200089F9142000F086F9AF2000F083F9FFF737
:1043300065FFBDE8104000F069B90246012000E0C9
:104340005043491EFCD2704710B50C4640F0B000F7
:1043500000F070F9102040EA141000F06BF904F03E
:104360000F00BDE8104000F065B9000008B5082B4B
:104370000DD0062B0AD10A4B02EB420203EB42029C
:10438000C03A00920823062200F080F808BD054BD1
:1043900003EB0212A2F50072102300920822F3E749
:1043A0001C7C00082C7600082DE9F04F9A462DED74
:1043B000028BB0EE408AF0EE608A81B09FED310B47
:1043C00015468B46074653EC102B51EC180B0C9CF2
:1043D000FCF716F9234605D82B2259463846FFF735
:1043E000C5FF0AE02D2259463846FFF7BFFF51ECC2
:1043F000180B81F0004141EC180B51EC180BFCF745
:10440000BAF88146FCF7AAF853EC182BFCF731F800
:1044100041EC180B51460A20FFF78FFF8046FCF74E
:104420009DF853EC182BFCF727F841EC100B01F02A
:10443000BFFB51EC100BFCF79EF8B0FBF8F1064601
:1044400001EB09023819C0B22B465946009400F01E
:1044500075F8681C00FB0470C0B223462E22594632
:10446000FFF784FFAD1C05FB0470C0B25346324613
:104470005946009400F062F801B0BDEC028BBDE833
:10448000F08F000000000000000000002DE9FC4F4C
:104490001F4615460C4606467F284BD83F2C49D868
:1044A000FFF7C0FE791ECA17002001EB52710122EE
:1044B000DFF884B004F0070902EBE10238E00023E2
:1044C00032E0F1187F2931D800EBD40ABAF1070F96
:1044D00030D80BEBCA1E1EF8017010FB05FCCDF89E
:1044E00004C0DDF82C809844CDF800801CF808C08A
:1044F0000CFA09FC47EA0C070EF801700AF10107F3
:10450000072F0FD80EEB0108DDE900C198F8807085
:1045100011F80CC0C9F108012CFA01FC47EA0C079C
:1045200088F880705B1CDBB2AB42CAD3401CC0B2BF
:104530008242C4DCBDE8FC8F5C0800202DE9F04716
:1045400000241D4690468A4681460A27089E14E0AC
:10455000291B0A20491EFFF7F0FEB8FBF0F0B0FB64
:10456000F7F107FB110204FB0690C0B23346514637
:104570003032FFF7FBFE641CE4B2AC42E8D3BDE886
:10458000F0872DE9F0471E46DDF8208014008A46AA
:104590008146434604D42B22FFF7E8FE254603E07C
:1045A0002D22FFF7E3FE654200240A2714E0311BA9
:1045B0000A20491EFFF7C1FEB5FBF0F0B0FBF7F192
:1045C00007FB1102641C04FB0890C0B2434651462D
:1045D0003032FFF7CBFEE4B2B442E8D3BDE8F08757
:1045E0002DE9F0411E46154688460746002408E09E
:1045F00014FB0670C0B233464146FFF7B7FE641C99
:10460000E4B22A5D002AF3D1BDE8F08170B5084D0F
:10461000002400212046FFF797FE05EBC4108021FF
:1046200000F018F8641CE4B2082CF2D370BD00004E
:104630005C0800201CB5002101918DF805000A20BE
:104640000090022301AA78210148FCF7EBFD1CBD74
:104650005C0C0020F8B506460C46481C01F082FBB5
:10466000054640202870002004E0315C2A18401CD8
:104670005170C0B2A042F8D30A200090631C2A46B1
:1046800078210448FCF7CEFD2846BDE8F84001F04B
:104690000FBB00005C0C00202DE9F84FFE4D95ED9E
:1046A000000ADFEDFE0A30EE200A85ED000AD5E9AA
:1046B0000101884203D0FFF7A1FD6868A860F84EA9
:1046C000B07810B16868401C6860696800200629ED
:1046D00000DD68606968DFF8CC83F34FDFF8CCB3A6
:1046E000DFF8CCA3DFF8CC930624072974D2DFE8E7
:1046F00001F00474FDFCFBFAF9000623EEA20C2184
:104700000020FFF76DFF0623EDA224210020FFF714
:1047100067FFED4E0094052396ED000A0C2124203E
:10472000BDEEC00A10EE102AFFF72BFFE74F0094F2
:10473000052397ED000A0C215420BDEEC00A10EEAF
:10474000102AFFF71EFFDFF888830094052398EDF9
:10475000000A18212420BDEEC00A10EE102AFFF72F
:1047600010FFDFF870930094052399ED000A1821DB
:104770005420BDEEC00A10EE102AFFF702FF00948D
:1047800096ED020A24210523BDEEC00A084610EE6C
:10479000102AFFF7F6FE009497ED020A0523242164
:1047A000BDEEC00A542010EE102AFFF7EAFE009476
:1047B00098ED020A05233021BDEEC00A242010EE38
:1047C000102AFFF7DEFE009499ED020A0523BDEEE4
:1047D000C00A10EE102AABE2AFE20623BEA20C2103
:1047E0000020FFF7FDFE0623BCA20C214820FFF7A6
:1047F000F7FE0623BAA218210020FFF7F1FE0623D8
:10480000B9A224210020FFF7EBFE24210623B8A241
:104810000846FFF7E5FE0623B6A224215420FFF741
:10482000DFFE0623B4A230210020FFF7D9FE2421A9
:104830000623AFA20846FFF7D3FE0623ADA224212C
:104840005420FFF7CDFE0623A9A230212420FFF734
:10485000C7FE0623A7A230215420FFF7C1FE46461B
:10486000D8F80000FBF7A0FE41EC100B0123032257
:104870000C2118200094FFF797FD7069FBF794FE58
:1048800041EC100B012303220C2154200094FFF76C
:104890008BFD9B4E00940123327818212420FFF7D2
:1048A0004DFE00947278012318213020FFF746FE58
:1048B0000094B278012318213C20FFF73FFE0094BA
:1048C000F278012318214820FFF738FE009432794E
:1048D000012318215420FFF731FE0094012372793F
:1048E000182104E0D6E1BAE145E184E02CE0602043
:1048F000FFF724FE0094B279012318216C20FFF702
:104900001DFE0094F279012318217820FFF716FE8E
:1049100000940323242130203A68FFF70FFE00940F
:104920000323242160207A68FFF708FE754E009467
:104930003021032308463268FFF700FE009403236A
:1049400030216020726813E106236FA20C21002041
:10495000FFF746FE06236FA218210020FFF740FE56
:1049600006236FA224210020FFF73AFE06236EA241
:1049700030210020FFF734FE6D4F3868FBF714FE3E
:1049800041EC100B012303220C2154200094FFF76B
:104990000BFD01230022182124200094FFF7CEFDF7
:1049A0007868FBF701FE41EC100B0123032218216C
:1049B00054200094FFF7F8FC00942421327801235E
:1049C0000846FFF7BBFD5B480094012302782421D1
:1049D0003C20FFF7B3FD58480094012302782421BE
:1049E0005420FFF7ABFD9BF8242006233021242020
:1049F000FFF7BCFCA2E1062350A20C210020FFF728
:104A0000EFFD504E0094012332780C212420FFF753
:104A100095FD0094727801230C213C20FFF78EFD58
:104A20000094B27801230C215420FFF787FD0094F5
:104A3000F27801230C216C20FFF780FD009432797D
:104A4000012318212420FFF779FD009472790123B6
:104A500018213C20FFF772FD0094B2790123182140
:104A60005420FFF76BFD0094F279012318216C208C
:104A7000FFF764FD00942421327A03230846FFF7F0
:104A80005DFD0094727A032324215420FFF756FD24
:104A90000094B27A032357E0480000200AD7233C51
:104AA000020000202C08002014000020A00100209B
:104AB000540000206C01002056656C3A0000000094
:104AC0005461723A000000003C020020B007002050
:104AD00090070020D007002059617700477A000036
:104AE000477265793A00000041696D3A00000000A4
:104AF00078000000790000004C617365723A000094
:104B0000400000201C0000205374656572596177D5
:104B10003A000000537465657250697463683A0026
:104B20004B65793A00000000426C75653A00000060
:104B300044080020060000200A0000205053323AAA
:104B4000000000002008002024216C20FFF7F6FC64
:104B50000094DBF84C005E460323C27A302100202B
:104B6000FFF7ECFC0094F06C03233021027B6C20F7
:104B7000FFF7E4FCE2E0062382A20C210020FFF70D
:104B80002FFD824E3068FBF70FFD41EC100B012327
:104B9000032218210C200094FFF706FC7068FBF735
:104BA00003FD41EC100B0123032218213020009457
:104BB000FFF7FAFBB068FBF7F7FC41EC100B0123A1
:104BC0000322182154200094FFF7EEFBF068FBF756
:104BD000EBFC41EC100B0123032224210C20009458
:104BE000FFF7E2FB3069FBF7DFFC41EC100B012320
:104BF0000322242130200094FFF7D6FB7069FBF7D5
:104C0000D3FC41EC100B01230322242154200094F7
:104C1000FFF7CAFBB069FBF7C7FC41EC100B01239F
:104C2000032230210C200094FFF7BEFBF069FBF754
:104C3000BBFC41EC100B30210123032208460094F9
:104C4000FFF7B2FB306AFBF7AFFC41EC100B01231E
:104C50000322302154200094FFF7A6FB6EE00623C8
:104C60004BA20C210020FFF7BBFC009404230C2175
:104C70003020DAF80020FFF761FC062346A2182155
:104C80000020FFF7ADFC0094042318213020D9F850
:104C900000206DE70623AFF2C0120C210020FFF7C1
:104CA0009FFCD8F80000FBF77FFC41EC100B0123C0
:104CB00003220C2118200094FFF776FB062336A26E
:104CC00018210020FFF78CFC0094042318213020C9
:104CD000D9F80020FFF732FC062332A2242100205D
:104CE000FFF77EFC00942421052308463A68FFF76D
:104CF00048FC00940523242154207A68FFF741FCE6
:104D000006232AA230210020FFF76AFC29480094DC
:104D10000123026830212420FFF733FC062326A25A
:104D200030213C20FFF75CFC0094DAF800200423DB
:104D300030215420FFF725FC00E0686000210623A5
:104D40001EA20846FFF74CFC0094012300212420FA
:104D50006A68FFF7F3FB06231AA200213020FFF751
:104D60003FFC2868FBF720FC41EC100B02230322D8
:104D7000002154200094FFF717FBBDE8F84FFFF720
:104D800045BC00005343414E3A0000003C01002066
:104D90004C317363616E3A005354507363616E3AE1
:104DA0000000000041494D3A000000004C6F737450
:104DB0003A000000580000204C313A00506167650D
:104DC0003A00000074696D653A00000038483949BE
:104DD000394A90ED010AD1ED000A30EE600ADFEDAC
:104DE000370A10EE101A80ED050A914202DD30EE0E
:104DF000600A06E010EE101A314A914203D930EEF3
:104E0000200A80ED050A10EE101A2E4A914202D9AE
:104E1000BBEE0E0A04E02C4A914203DDB3EE0E0A0B
:104E200080ED050AF0EEC00A10EE901A274A914272
:104E300005DAD0ED070A70EE800AC0ED070AD0ED62
:104E4000090A90ED071AF1EE601AB4EEE11AF1EEDC
:104E500010FA02D2C0ED071A06E0B4EEE01AF1EE45
:104E600010FA01DDC0ED070A90F82C1091B1D0EDD9
:104E7000020A90ED061AD0ED031A60EE800A30EEB9
:104E8000411A41EE810A90ED041AD0ED071A41EE65
:104E9000210A03E0DFED0E0AC0ED070AC0ED0A0AA1
:104EA00080ED060A0B48B0EE600A80ED020A7047FA
:104EB000740200202C080020000034430000B4439A
:104EC000000034C30000F0C10000F0410000A04029
:104ED00000000000FC070020FFF778BF0021022837
:104EE00007D003280BD004280BD005280BD00020B6
:104EF00070474FF08042506A516200B27047044AD6
:104F000002E0044A00E0044A1068116000B27047F1
:104F10002404004024080040240C004000F026F83F
:104F2000012000F055FFF9E70D48F0EE0C0A90ED76
:104F3000001AB4EEC10AF1EE10FA03DD31EE201AC8
:104F400080ED001AB4EEC10AF1EE10FA02D3B0EE11
:104F5000410A704731EE600A80ED000A7047000098
:104F6000340000200A2000F033FFFBE730B525486D
:104F70000021254AC46F0846C0EB0013234402EB0E
:104F800080055B89401C19446B600C28F4DB00EE43
:104F9000101AB2EE081A1D48F8EE400A1A4B443BAC
:104FA00080EE810AFDEEC00AC2ED000A017803EB33
:104FB0008104491C84ED000A0524B1FBF4F504FBCF
:104FC000151101704178052901D2491C41709FEDEE
:104FD000100A0021407807E003EB8104491CD4ED5E
:104FE000000AC9B230EE800A04468142F4D300EED2
:104FF000904AF8EE600A80EE201ABDEEC10A82EDFA
:10500000000A30BDA00100206C010020000000203B
:105010000000000010B54FF0E020006902F050F9E8
:10502000012803D0BDE8104001F07EBE10BD000095
:1050300030B593B030216846FBF76CF914210CA809
:10504000FBF768F91D480025016841F080510160B7
:10505000006800F0805011901948016841F48041C7
:1050600001600068022400F4804011900120039048
:1050700010200490009406940820CDE90750A82041
:10508000CDE9090404200B906846FCF7ABFB08B19E
:1050900072B6FEE70CA90F2081E831004FF4A05052
:1050A0000F904FF48050109005210CA8FCF78EFA59
:1050B000002801D072B6FEE713B030BD4038024080
:1050C000007000400248016841F4700101607047BF
:1050D00088ED00E00148FDF703B80000BC12002095
:1050E00010B50448FCF7FCFFBDE810400248FCF78F
:1050F000F7BF0000B40E0020440F0020F0B5026896
:10510000294C2A4D2A4E2B4F2B4B4FF0804CA0425E
:1051100009D0604507D0A84205D0B04203D0B842BC
:1051200001D0984204D122F0700E4A6842EA0E0281
:10513000A0421BD0604519D0A84217D0B04215D06C
:10514000B84213D0984211D01C4DA8420ED01C4D2D
:10515000A8420BD01B4DA84208D01B4DA84205D039
:105160001A4DA84202D01A4DA84203D122F440752C
:10517000CA682A434D6922F080022A4302608A6885
:10518000C2620A688262A04201D0984201D10969D4
:105190000163012141610169C90703D0016921F05F
:1051A00001010161F0BD0000000001400004004069
:1051B00000080040000C0040000401400040014095
:1051C000004401400048014000180040001C00401D
:1051D0000020004010B501F01F030121046A99402E
:1051E0008C430462016A9A401143016210BD10B5FC
:1051F000846842EA032224F47F440A432243826003
:1052000010BD826822F070020A4342F007018160FB
:1052100070470000F0B5036A026A22F001020262E0
:1052200042688469124E24F073050C682C4323F005
:1052300002058B682B430D4DA84201D0B04205D129
:1052400023F00807CB683B4323F00403A84201D0B6
:10525000B04205D14D6922F4407215438A692A4350
:1052600042608461496841630362F0BD000001400F
:1052700000040140F0B5026A036A23F010030362E0
:10528000436884690D6824F4E64444EA05248D6883
:1052900022F0200242EA05120F4D104EA84201D022
:1052A000B04206D1CF6822F0800242EA071222F013
:1052B0004002A84201D0B04207D14D6923F44063B7
:1052C00043EA85038D6943EA850343608461496845
:1052D00081630262F0BD0000000001400004014053
:1052E000F0B5026A036A23F4807303624368C469F9
:1052F00022F4007224F073050C68124E2C438D6862
:1053000042EA05220E4DA84201D0B04206D1CF6834
:1053100022F4006242EA072222F48062A84201D00D
:10532000B04207D14D6923F4405343EA05138D6918
:1053300043EA05134360C4614968C1630262F0BD7A
:10534000000001400004014030B5046A026A22F402
:10535000805202624268C3690D6823F4E64343EA5F
:1053600005238D6824F4005444EA0534084DA8420E
:1053700002D0084DA84204D14D6922F4804242EA8D
:1053800085124260C36149680164046230BD000057
:10539000000001400004014010B5036A046A24F0D3
:1053A00001040462846924F0F00444EA021423F046
:1053B0000A020A438461026210BD10B5036A046ADE
:1053C00024F010040462846923F0A00324F47044E0
:1053D00044EA023243EA01118261016210BD000019
:1053E000DFF87081DFF870A1DFF870B15C4E5D4CC2
:1053F00000254FF4FA694FF4FA77206901280AD0A2
:10540000022818D003282AD0042832D005283CD0FE
:1054100006284AD052E0A0680A30A060B0F5967F16
:1054200002DAC8F8007049E001202060C8F8005096
:105430000220A56020614C4840F26B720168A1F126
:105440006500904203D2A0680A30A06002E049459E
:1054500027DCA068C82831DD0320A5602061C8F8DA
:105460000050A0680A30A060B84227DD0420A56083
:1054700020616FF00E01C8F80010A0680A30A0602B
:10548000B8421BDD0520A56020610F21C8F800107F
:10549000A0680A30A060B84210DD04202061A56039
:1054A0000CE0C821C8F80010F9E70120C8F8005046
:1054B000FBF7F2F901210320FDF738FF6068DAF805
:1054C0000020C0F5A0718A4201DD012100E0002129
:1054D00000F5A070824201DA012000E000200140C6
:1054E000306800B101200140DBF80000012801D044
:1054F000012000E0002001420AD0E0680A30E060AC
:10550000B0F5E17F05DD0120FBF7C6F9012204E0DB
:10551000E5600020FBF7C0F9002208211348FBF7E3
:10552000B2FD306840F6B831884201DA322161605C
:10553000484501DA46216160B0F57A7F01DA8221BF
:105540006160B84201DAF02060600A2000F040FC9F
:1055500053E700003800002014000020580000200D
:10556000540000205C0000206C010020000C024070
:10557000F8B51E4C20680168C90629D50168406845
:1055800000902046FCF7C0FFE16B194D0968B5F8A3
:1055900042004968401A86B2002409E0A86C015D07
:1055A000072903D1611C415C192916D0641CA4B2DF
:1055B00095F84020301B9042F0DAB5F84210A86C04
:1055C000FAF7A8FEB5F842200848A96CFDF7EAFAF8
:1055D000BDE8F8400548FCF7D1BF0119E86CFAF7BF
:1055E00080FE95F84000204484B2E1E78C0F002053
:1055F000A0010020F8B51E4C20680168C90629D515
:105600000168406800902046FCF77EFFE16B194D71
:105610000968B5F862004968401A86B2002409E0BA
:10562000A86E015D072903D1611C415C192916D0C0
:10563000641CA4B295F86020301B9042F0DAB5F8F3
:105640006210A86EFAF766FEB5F862200848A96EE7
:10565000FDF7A8FABDE8F8400548FCF78FBF01192F
:10566000E86EFAF73EFE95F86000204484B2E1E768
:10567000D40F0020A001002010B5806B0021C1854F
:10568000C184FCF779FF10BD70B5846B2068406958
:1056900094F84110C0F3C0100025212904D118B19D
:1056A000E584204600F08EF82068406994F84210A6
:1056B000C0F38010222904D118B1E585204600F0FE
:1056C0005AF8606C40F0100060642046FCF754FF0C
:1056D00070BD10B50146806B096809684FF0000283
:1056E000C9052ED4C28501680C3151E8003F23F46E
:1056F000807341E80034002CF5D10168143151E881
:10570000003F23F0010341E80034002CF5D101688B
:10571000143151E8003F23F0400341E80034002CED
:10572000F5D1202180F84210016B012909D10168CF
:105730000C3151E8003F23F0100341E80034002C05
:10574000F5D14263016B012902D0FDF747FA10BD84
:10575000818DFCF7D8FE10BD10B5806B012141632F
:10576000016B012902D0FDF747FA10BD818D490870
:10577000FCF7C9FE10BD01680C3151E8002F22F47E
:10578000907241E80023002BF5D10168143151E8F3
:10579000002F22F0010241E80023002BF5D1016B1C
:1057A000012909D101680C3151E8002F22F01002C3
:1057B00041E80023002BF5D1202180F84210002180
:1057C0000163704701680C3151E8002F22F0C002DC
:1057D00041E80023002BF5D1202180F841107047CB
:1057E00008B590F84210222901D0022008BD826835
:1057F0004FF480539A4201D1016921B1816A9A42E2
:105800001BD04AB10AE00268816A5268C2F30802FA
:105810000A80816A891C08E0026972B102685268D4
:1058200002F07F020A70816A491C8162C18D491EA3
:105830000904090CC18503D01BE002685268F1E736
:105840000168CA6822F02002CA600168CA6822F4AE
:105850008072CA6001684A6922F001024A6120210F
:1058600080F8421000214163026B012A03D0FDF74A
:10587000B5F9002008BD016301680C3151E8002F23
:1058800022F0100241E80023002BF5D101680A68DC
:10589000D20602D50A6849680091818DFCF733FE73
:1058A000E7E7000070B5044600680169E26821F48A
:1058B0004051114301612169A068E26908436169AF
:1058C000114308432168CA6849F20C639A430243B2
:1058D000CA6020684169A26921F4407111434161A5
:1058E00031492068884202D03049884202D1FBF712
:1058F00037FF01E0FBF724FFE2690023192164254B
:105900003226B2F5004F626828D0A0FB0101930F48
:105910009200FAF7B5FC0146B0FBF5F06FF0180203
:10592000504301EB800006EB0010B0FBF5F000F0F7
:10593000F002B1FBF5F002EB0012B1FBF5F06FF0F5
:105940001803584301EB800006EB0010B0FBF5F0A4
:1059500000F00F0021681044886070BDA0FB0101B9
:1059600092185B41FAF78CFC0146B0FBF5F002019E
:10597000B1FBF5F06FF01803584301EB800006EB24
:10598000C000B0FBF5F000F0F80002EB4002B1FB04
:10599000F5F0584301EB800006EBC000B0FBF5F0DA
:1059A00000F00700D6E7000000100140001401409D
:1059B00038B5816204468285002013466064222245
:1059C00084F84220E56B1B4AEA63E56B1A4A2A64B5
:1059D000E56B1A4AEA64E26B10650A462168E06BDF
:1059E000091DFBF71BFA20680168406800902069D8
:1059F00048B120680C3050E8001F41F4807140E845
:105A00000012002AF5D12068143050E8001F41F040
:105A1000010140E80012002AF5D12068143050E856
:105A2000001F41F0400140E80012002AF5D100209B
:105A300038BD0000D35600085957000889560008A1
:105A400081628285C28500214164222180F8421052
:105A5000016921B10168CA6842F48072CA600168B4
:105A60004A6942F001024A610068C16841F02001C0
:105A7000C160002070470000F8B51A4D2868016821
:105A8000C90621D50168406800902846FCF73CFD16
:105A9000E96B154C096860884968401A86B2002590
:105AA00005E0A068415D552913D06D1CADB2227888
:105AB000701B9042F5DA6188A068FAF72BFC6288C7
:105AC0000848A168FDF76EF8BDE8F8400548FCF706
:105AD00055BD4119E068FAF704FC2078284485B2E6
